{
  "_format": "hh-sol-artifact-1",
  "contractName": "ERC20Pool",
  "sourceName": "contracts/ERC20Pool.sol",
  "abi": [
    {
      "inputs": [],
      "stateMutability": "nonpayable",
      "type": "constructor"
    },
    {
      "anonymous": false,
      "inputs": [
        {
          "indexed": true,
          "internalType": "address",
          "name": "previousOwner",
          "type": "address"
        },
        {
          "indexed": true,
          "internalType": "address",
          "name": "newOwner",
          "type": "address"
        }
      ],
      "name": "OwnershipTransferred",
      "type": "event"
    },
    {
      "anonymous": false,
      "inputs": [
        {
          "indexed": false,
          "internalType": "address",
          "name": "tokenContract",
          "type": "address"
        },
        {
          "indexed": false,
          "internalType": "uint256",
          "name": "amount",
          "type": "uint256"
        }
      ],
      "name": "rewardDeposited",
      "type": "event"
    },
    {
      "anonymous": false,
      "inputs": [
        {
          "indexed": false,
          "internalType": "address",
          "name": "tokenContract",
          "type": "address"
        },
        {
          "indexed": false,
          "internalType": "address",
          "name": "user",
          "type": "address"
        },
        {
          "indexed": false,
          "internalType": "uint256",
          "name": "amount",
          "type": "uint256"
        }
      ],
      "name": "userDeposited",
      "type": "event"
    },
    {
      "anonymous": false,
      "inputs": [
        {
          "indexed": false,
          "internalType": "address",
          "name": "tokenContract",
          "type": "address"
        },
        {
          "indexed": false,
          "internalType": "address",
          "name": "user",
          "type": "address"
        },
        {
          "indexed": false,
          "internalType": "uint256",
          "name": "amount",
          "type": "uint256"
        }
      ],
      "name": "userWithdrew",
      "type": "event"
    },
    {
      "inputs": [
        {
          "internalType": "address",
          "name": "tokenContract",
          "type": "address"
        },
        {
          "internalType": "uint256",
          "name": "numberOfTokens",
          "type": "uint256"
        }
      ],
      "name": "depositRewards",
      "outputs": [
        {
          "internalType": "bool",
          "name": "",
          "type": "bool"
        }
      ],
      "stateMutability": "nonpayable",
      "type": "function"
    },
    {
      "inputs": [
        {
          "internalType": "address",
          "name": "tokenContract",
          "type": "address"
        },
        {
          "internalType": "uint256",
          "name": "numberOfTokens",
          "type": "uint256"
        }
      ],
      "name": "depositTokens",
      "outputs": [
        {
          "internalType": "bool",
          "name": "",
          "type": "bool"
        }
      ],
      "stateMutability": "nonpayable",
      "type": "function"
    },
    {
      "inputs": [
        {
          "internalType": "address",
          "name": "",
          "type": "address"
        },
        {
          "internalType": "address",
          "name": "",
          "type": "address"
        }
      ],
      "name": "hasDeposits",
      "outputs": [
        {
          "internalType": "bool",
          "name": "",
          "type": "bool"
        }
      ],
      "stateMutability": "view",
      "type": "function"
    },
    {
      "inputs": [],
      "name": "owner",
      "outputs": [
        {
          "internalType": "address",
          "name": "",
          "type": "address"
        }
      ],
      "stateMutability": "view",
      "type": "function"
    },
    {
      "inputs": [
        {
          "internalType": "address",
          "name": "",
          "type": "address"
        }
      ],
      "name": "poolBalance",
      "outputs": [
        {
          "internalType": "uint256",
          "name": "",
          "type": "uint256"
        }
      ],
      "stateMutability": "view",
      "type": "function"
    },
    {
      "inputs": [],
      "name": "renounceOwnership",
      "outputs": [],
      "stateMutability": "nonpayable",
      "type": "function"
    },
    {
      "inputs": [
        {
          "internalType": "address",
          "name": "newOwner",
          "type": "address"
        }
      ],
      "name": "transferOwnership",
      "outputs": [],
      "stateMutability": "nonpayable",
      "type": "function"
    },
    {
      "inputs": [
        {
          "internalType": "address",
          "name": "",
          "type": "address"
        },
        {
          "internalType": "uint256",
          "name": "",
          "type": "uint256"
        }
      ],
      "name": "userBalance",
      "outputs": [
        {
          "internalType": "address",
          "name": "user",
          "type": "address"
        },
        {
          "internalType": "uint256",
          "name": "balance",
          "type": "uint256"
        }
      ],
      "stateMutability": "view",
      "type": "function"
    },
    {
      "inputs": [
        {
          "internalType": "address",
          "name": "",
          "type": "address"
        },
        {
          "internalType": "address",
          "name": "",
          "type": "address"
        }
      ],
      "name": "userPoolPosition",
      "outputs": [
        {
          "internalType": "uint256",
          "name": "",
          "type": "uint256"
        }
      ],
      "stateMutability": "view",
      "type": "function"
    },
    {
      "inputs": [
        {
          "internalType": "address",
          "name": "tokenContract",
          "type": "address"
        }
      ],
      "name": "withdrawDepositsAndRewards",
      "outputs": [
        {
          "internalType": "bool",
          "name": "",
          "type": "bool"
        }
      ],
      "stateMutability": "nonpayable",
      "type": "function"
    }
  ],
  "bytecode": "0x608060405234801561001057600080fd5b5061001a33610023565b60018055610073565b600080546001600160a01b038381166001600160a01b0319831681178455604051919092169283917f8be0079c531659141344cd1fd0a4f28419497f9722a3daafe3b4186f6b6457e09190a35050565b6110e9806100826000396000f3fe608060405234801561001057600080fd5b506004361061009e5760003560e01c806397ad1cce1161006657806397ad1cce14610150578063c818ccff14610163578063cd28fb2814610191578063e20708b0146101a4578063f2fde38b146101cf57600080fd5b80636141386a146100a357806366168bd7146100da57806368abb5e0146100fd578063715018a61461012b5780638da5cb5b14610135575b600080fd5b6100b66100b1366004610f01565b6101e2565b604080516001600160a01b0390931683526020830191909152015b60405180910390f35b6100ed6100e8366004610f01565b610228565b60405190151581526020016100d1565b61011d61010b366004610eb5565b60036020526000908152604090205481565b6040519081526020016100d1565b61013361041f565b005b6000546040516001600160a01b0390911681526020016100d1565b6100ed61015e366004610f01565b610433565b6100ed610171366004610ecf565b600560209081526000928352604080842090915290825290205460ff1681565b6100ed61019f366004610eb5565b6106de565b61011d6101b2366004610ecf565b600460209081526000928352604080842090915290825290205481565b6101336101dd366004610eb5565b610987565b600260205281600052604060002081815481106101fe57600080fd5b6000918252602090912060029091020180546001909101546001600160a01b039091169250905082565b6000600260015414156102565760405162461bcd60e51b815260040161024d90610fb1565b60405180910390fd5b60026001556102706001600160a01b038416333085610a00565b6001600160a01b03831660009081526003602052604081208054849290610298908490610fe8565b90915550506001600160a01b038316600090815260056020908152604080832033845290915290205460ff1615156001141561034b576001600160a01b03831660008181526004602090815260408083203384528252808320549383526002909152902080548491908390811061031f57634e487b7160e01b600052603260045260246000fd5b9060005260206000209060020201600101600082825461033f9190610fe8565b909155506103c9915050565b6040805180820182523380825260208083018681526001600160a01b03888116600081815260028086528882208054600180820183559184528784209951920290980180546001600160a01b0319169190941617835592519186019190915581526005825284812092815291905291909120805460ff191690911790555b604080516001600160a01b03851681523360208201529081018390527ff84a13b0c9619717e9e38bdc4c1344253f96bfe80852efe84a56549d8362102d906060015b60405180910390a150600180805592915050565b610427610a71565b6104316000610acb565b565b6000600260015414156104585760405162461bcd60e51b815260040161024d90610fb1565b6002600155610465610a71565b61047a6001600160a01b038416333085610a00565b60005b6001600160a01b038416600090815260026020526040902054811015610671576001600160a01b03841660009081526002602052604081208054839081106104d557634e487b7160e01b600052603260045260246000fd5b906000526020600020906002020160010154111561065f576001600160a01b0384166000908152600360209081526040808320546002909252822080548490811061053057634e487b7160e01b600052603260045260246000fd5b906000526020600020906002020160010154606461054e9190611020565b6105589190611000565b9050600060646105688684611020565b6105729190611000565b6001600160a01b0387166000908152600260205260409020805491925090849081106105ae57634e487b7160e01b600052603260045260246000fd5b906000526020600020906002020160010154816105cb9190610fe8565b6001600160a01b038716600090815260026020526040902080548590811061060357634e487b7160e01b600052603260045260246000fd5b600091825260209182902060016002909202010191909155604080516001600160a01b03891681529182018490527f3c16a783fbaa3b8717d2a0f1b75d998cb199a884d0ebe43d3af3e3106ab9e7bb910160405180910390a150505b8061066981611082565b91505061047d565b506001600160a01b0383166000908152600360205260408120805484929061069a908490610fe8565b9091555050604080516001600160a01b0385168152602081018490527f3c16a783fbaa3b8717d2a0f1b75d998cb199a884d0ebe43d3af3e3106ab9e7bb910161040b565b6000600260015414156107035760405162461bcd60e51b815260040161024d90610fb1565b600260018181556001600160a01b038416600081815260056020908152604080832033808552908352818420805460ff191690961790955592825293845281812060048552828220938252929093528220548154811061077357634e487b7160e01b600052603260045260246000fd5b906000526020600020906002020160010154116107d25760405162461bcd60e51b815260206004820181905260248201527f5573657220686173206e6f2062616c616e636520696e207468697320706f6f6c604482015260640161024d565b6001600160a01b0382166000908152600260209081526040808320600483528184203385529092528220548154811061081b57634e487b7160e01b600052603260045260246000fd5b90600052602060002090600202016001015490507f3c16a783fbaa3b8717d2a0f1b75d998cb199a884d0ebe43d3af3e3106ab9e7bb83826040516108749291906001600160a01b03929092168252602082015260400190565b60405180910390a16108906001600160a01b0384163083610b1b565b6108a56001600160a01b038416303384610a00565b604080516001600160a01b03851681523360208201529081018290527f14220af77a9f59e5af4b16fcc6ab200c62726b568758826392f06901014b263a9060600160405180910390a16001600160a01b0383166000908152600360205260408120805483929061091690849061103f565b90915550506001600160a01b0383166000908152600260209081526040808320600483528184203385529092528220548154811061096457634e487b7160e01b600052603260045260246000fd5b906000526020600020906002020160010181905550600191505060018055919050565b61098f610a71565b6001600160a01b0381166109f45760405162461bcd60e51b815260206004820152602660248201527f4f776e61626c653a206e6577206f776e657220697320746865207a65726f206160448201526564647265737360d01b606482015260840161024d565b6109fd81610acb565b50565b6040516001600160a01b0380851660248301528316604482015260648101829052610a6b9085906323b872dd60e01b906084015b60408051601f198184030181529190526020810180516001600160e01b03166001600160e01b031990931692909217909152610c44565b50505050565b6000546001600160a01b031633146104315760405162461bcd60e51b815260206004820181905260248201527f4f776e61626c653a2063616c6c6572206973206e6f7420746865206f776e6572604482015260640161024d565b600080546001600160a01b038381166001600160a01b0319831681178455604051919092169283917f8be0079c531659141344cd1fd0a4f28419497f9722a3daafe3b4186f6b6457e09190a35050565b801580610ba45750604051636eb1769f60e11b81523060048201526001600160a01b03838116602483015284169063dd62ed3e9060440160206040518083038186803b158015610b6a57600080fd5b505afa158015610b7e573d6000803e3d6000fd5b505050506040513d601f19601f82011682018060405250810190610ba29190610f4a565b155b610c0f5760405162461bcd60e51b815260206004820152603660248201527f5361666545524332303a20617070726f76652066726f6d206e6f6e2d7a65726f60448201527520746f206e6f6e2d7a65726f20616c6c6f77616e636560501b606482015260840161024d565b6040516001600160a01b038316602482015260448101829052610c3f90849063095ea7b360e01b90606401610a34565b505050565b6000610c99826040518060400160405280602081526020017f5361666545524332303a206c6f772d6c6576656c2063616c6c206661696c6564815250856001600160a01b0316610d169092919063ffffffff16565b805190915015610c3f5780806020019051810190610cb79190610f2a565b610c3f5760405162461bcd60e51b815260206004820152602a60248201527f5361666545524332303a204552433230206f7065726174696f6e20646964206e6044820152691bdd081cdd58d8d9595960b21b606482015260840161024d565b6060610d258484600085610d2f565b90505b9392505050565b606082471015610d905760405162461bcd60e51b815260206004820152602660248201527f416464726573733a20696e73756666696369656e742062616c616e636520666f6044820152651c8818d85b1b60d21b606482015260840161024d565b6001600160a01b0385163b610de75760405162461bcd60e51b815260206004820152601d60248201527f416464726573733a2063616c6c20746f206e6f6e2d636f6e7472616374000000604482015260640161024d565b600080866001600160a01b03168587604051610e039190610f62565b60006040518083038185875af1925050503d8060008114610e40576040519150601f19603f3d011682016040523d82523d6000602084013e610e45565b606091505b5091509150610e55828286610e60565b979650505050505050565b60608315610e6f575081610d28565b825115610e7f5782518084602001fd5b8160405162461bcd60e51b815260040161024d9190610f7e565b80356001600160a01b0381168114610eb057600080fd5b919050565b600060208284031215610ec6578081fd5b610d2882610e99565b60008060408385031215610ee1578081fd5b610eea83610e99565b9150610ef860208401610e99565b90509250929050565b60008060408385031215610f13578182fd5b610f1c83610e99565b946020939093013593505050565b600060208284031215610f3b578081fd5b81518015158114610d28578182fd5b600060208284031215610f5b578081fd5b5051919050565b60008251610f74818460208701611056565b9190910192915050565b6020815260008251806020840152610f9d816040850160208701611056565b601f01601f19169190910160400192915050565b6020808252601f908201527f5265656e7472616e637947756172643a207265656e7472616e742063616c6c00604082015260600190565b60008219821115610ffb57610ffb61109d565b500190565b60008261101b57634e487b7160e01b81526012600452602481fd5b500490565b600081600019048311821515161561103a5761103a61109d565b500290565b6000828210156110515761105161109d565b500390565b60005b83811015611071578181015183820152602001611059565b83811115610a6b5750506000910152565b60006000198214156110965761109661109d565b5060010190565b634e487b7160e01b600052601160045260246000fdfea26469706673582212205891a59a84dab2d59805218480d8f98839f1a07e9c0282ff64afbc36d2cd99d664736f6c63430008040033",
  "linkReferences": {},
  "deployedLinkReferences": {}
}